{
  "contractName": "NFTBI",
  "abi": [
    {
      "inputs": [],
      "stateMutability": "nonpayable",
      "type": "constructor"
    },
    {
      "anonymous": false,
      "inputs": [
        {
          "indexed": true,
          "internalType": "address",
          "name": "owner",
          "type": "address"
        },
        {
          "indexed": true,
          "internalType": "address",
          "name": "approved",
          "type": "address"
        },
        {
          "indexed": true,
          "internalType": "uint256",
          "name": "tokenId",
          "type": "uint256"
        }
      ],
      "name": "Approval",
      "type": "event"
    },
    {
      "anonymous": false,
      "inputs": [
        {
          "indexed": true,
          "internalType": "address",
          "name": "owner",
          "type": "address"
        },
        {
          "indexed": true,
          "internalType": "address",
          "name": "operator",
          "type": "address"
        },
        {
          "indexed": false,
          "internalType": "bool",
          "name": "approved",
          "type": "bool"
        }
      ],
      "name": "ApprovalForAll",
      "type": "event"
    },
    {
      "anonymous": false,
      "inputs": [
        {
          "indexed": true,
          "internalType": "address",
          "name": "previousOwner",
          "type": "address"
        },
        {
          "indexed": true,
          "internalType": "address",
          "name": "newOwner",
          "type": "address"
        }
      ],
      "name": "OwnershipTransferred",
      "type": "event"
    },
    {
      "anonymous": false,
      "inputs": [
        {
          "indexed": true,
          "internalType": "address",
          "name": "from",
          "type": "address"
        },
        {
          "indexed": true,
          "internalType": "address",
          "name": "to",
          "type": "address"
        },
        {
          "indexed": true,
          "internalType": "uint256",
          "name": "tokenId",
          "type": "uint256"
        }
      ],
      "name": "Transfer",
      "type": "event"
    },
    {
      "inputs": [
        {
          "internalType": "address",
          "name": "to",
          "type": "address"
        },
        {
          "internalType": "uint256",
          "name": "tokenId",
          "type": "uint256"
        }
      ],
      "name": "approve",
      "outputs": [],
      "stateMutability": "nonpayable",
      "type": "function"
    },
    {
      "inputs": [
        {
          "internalType": "address",
          "name": "owner",
          "type": "address"
        }
      ],
      "name": "balanceOf",
      "outputs": [
        {
          "internalType": "uint256",
          "name": "",
          "type": "uint256"
        }
      ],
      "stateMutability": "view",
      "type": "function",
      "constant": true
    },
    {
      "inputs": [
        {
          "internalType": "uint256",
          "name": "tokenId",
          "type": "uint256"
        }
      ],
      "name": "getApproved",
      "outputs": [
        {
          "internalType": "address",
          "name": "",
          "type": "address"
        }
      ],
      "stateMutability": "view",
      "type": "function",
      "constant": true
    },
    {
      "inputs": [
        {
          "internalType": "address",
          "name": "owner",
          "type": "address"
        },
        {
          "internalType": "address",
          "name": "operator",
          "type": "address"
        }
      ],
      "name": "isApprovedForAll",
      "outputs": [
        {
          "internalType": "bool",
          "name": "",
          "type": "bool"
        }
      ],
      "stateMutability": "view",
      "type": "function",
      "constant": true
    },
    {
      "inputs": [],
      "name": "name",
      "outputs": [
        {
          "internalType": "string",
          "name": "",
          "type": "string"
        }
      ],
      "stateMutability": "view",
      "type": "function",
      "constant": true
    },
    {
      "inputs": [],
      "name": "owner",
      "outputs": [
        {
          "internalType": "address",
          "name": "",
          "type": "address"
        }
      ],
      "stateMutability": "view",
      "type": "function",
      "constant": true
    },
    {
      "inputs": [
        {
          "internalType": "uint256",
          "name": "tokenId",
          "type": "uint256"
        }
      ],
      "name": "ownerOf",
      "outputs": [
        {
          "internalType": "address",
          "name": "",
          "type": "address"
        }
      ],
      "stateMutability": "view",
      "type": "function",
      "constant": true
    },
    {
      "inputs": [],
      "name": "renounceOwnership",
      "outputs": [],
      "stateMutability": "nonpayable",
      "type": "function"
    },
    {
      "inputs": [
        {
          "internalType": "address",
          "name": "from",
          "type": "address"
        },
        {
          "internalType": "address",
          "name": "to",
          "type": "address"
        },
        {
          "internalType": "uint256",
          "name": "tokenId",
          "type": "uint256"
        }
      ],
      "name": "safeTransferFrom",
      "outputs": [],
      "stateMutability": "nonpayable",
      "type": "function"
    },
    {
      "inputs": [
        {
          "internalType": "address",
          "name": "from",
          "type": "address"
        },
        {
          "internalType": "address",
          "name": "to",
          "type": "address"
        },
        {
          "internalType": "uint256",
          "name": "tokenId",
          "type": "uint256"
        },
        {
          "internalType": "bytes",
          "name": "_data",
          "type": "bytes"
        }
      ],
      "name": "safeTransferFrom",
      "outputs": [],
      "stateMutability": "nonpayable",
      "type": "function"
    },
    {
      "inputs": [
        {
          "internalType": "address",
          "name": "operator",
          "type": "address"
        },
        {
          "internalType": "bool",
          "name": "approved",
          "type": "bool"
        }
      ],
      "name": "setApprovalForAll",
      "outputs": [],
      "stateMutability": "nonpayable",
      "type": "function"
    },
    {
      "inputs": [
        {
          "internalType": "bytes4",
          "name": "interfaceId",
          "type": "bytes4"
        }
      ],
      "name": "supportsInterface",
      "outputs": [
        {
          "internalType": "bool",
          "name": "",
          "type": "bool"
        }
      ],
      "stateMutability": "view",
      "type": "function",
      "constant": true
    },
    {
      "inputs": [],
      "name": "symbol",
      "outputs": [
        {
          "internalType": "string",
          "name": "",
          "type": "string"
        }
      ],
      "stateMutability": "view",
      "type": "function",
      "constant": true
    },
    {
      "inputs": [
        {
          "internalType": "uint256",
          "name": "tokenId",
          "type": "uint256"
        }
      ],
      "name": "tokenURI",
      "outputs": [
        {
          "internalType": "string",
          "name": "",
          "type": "string"
        }
      ],
      "stateMutability": "view",
      "type": "function",
      "constant": true
    },
    {
      "inputs": [
        {
          "internalType": "address",
          "name": "from",
          "type": "address"
        },
        {
          "internalType": "address",
          "name": "to",
          "type": "address"
        },
        {
          "internalType": "uint256",
          "name": "tokenId",
          "type": "uint256"
        }
      ],
      "name": "transferFrom",
      "outputs": [],
      "stateMutability": "nonpayable",
      "type": "function"
    },
    {
      "inputs": [
        {
          "internalType": "address",
          "name": "newOwner",
          "type": "address"
        }
      ],
      "name": "transferOwnership",
      "outputs": [],
      "stateMutability": "nonpayable",
      "type": "function"
    },
    {
      "inputs": [
        {
          "internalType": "address",
          "name": "_owner",
          "type": "address"
        },
        {
          "internalType": "string",
          "name": "_tokenURI",
          "type": "string"
        }
      ],
      "name": "mintNFT",
      "outputs": [
        {
          "internalType": "uint256",
          "name": "",
          "type": "uint256"
        }
      ],
      "stateMutability": "nonpayable",
      "type": "function"
    },
    {
      "inputs": [
        {
          "internalType": "uint256",
          "name": "_tokenId",
          "type": "uint256"
        },
        {
          "internalType": "string",
          "name": "_tokenURI",
          "type": "string"
        }
      ],
      "name": "changeTokenURI",
      "outputs": [],
      "stateMutability": "nonpayable",
      "type": "function"
    }
  ],
  "bytecode": "0x60806040523480156200001157600080fd5b506040518060400160405280601881526020017f426c6f636b636861696e20496e7370657220323032322e3100000000000000008152506040518060400160405280600581526020017f4e46544249000000000000000000000000000000000000000000000000000000815250816000908051906020019062000096929190620001a6565b508060019080519060200190620000af929190620001a6565b505050620000d2620000c6620000d860201b60201c565b620000e060201b60201c565b620002bb565b600033905090565b6000600760009054906101000a900473ffffffffffffffffffffffffffffffffffffffff16905081600760006101000a81548173ffffffffffffffffffffffffffffffffffffffff021916908373ffffffffffffffffffffffffffffffffffffffff1602179055508173ffffffffffffffffffffffffffffffffffffffff168173ffffffffffffffffffffffffffffffffffffffff167f8be0079c531659141344cd1fd0a4f28419497f9722a3daafe3b4186f6b6457e060405160405180910390a35050565b828054620001b49062000285565b90600052602060002090601f016020900481019282620001d8576000855562000224565b82601f10620001f357805160ff191683800117855562000224565b8280016001018555821562000224579182015b828111156200022357825182559160200191906001019062000206565b5b50905062000233919062000237565b5090565b5b808211156200025257600081600090555060010162000238565b5090565b7f4e487b7100000000000000000000000000000000000000000000000000000000600052602260045260246000fd5b600060028204905060018216806200029e57607f821691505b60208210811415620002b557620002b462000256565b5b50919050565b6130ff80620002cb6000396000f3fe608060405234801561001057600080fd5b50600436106101165760003560e01c80637fb3a9a2116100a2578063b88d4fde11610071578063b88d4fde146102cb578063c87b56dd146102e7578063e985e9c514610317578063eacabe1414610347578063f2fde38b1461037757610116565b80637fb3a9a2146102575780638da5cb5b1461027357806395d89b4114610291578063a22cb465146102af57610116565b806323b872dd116100e957806323b872dd146101b557806342842e0e146101d15780636352211e146101ed57806370a082311461021d578063715018a61461024d57610116565b806301ffc9a71461011b57806306fdde031461014b578063081812fc14610169578063095ea7b314610199575b600080fd5b61013560048036038101906101309190611d07565b610393565b6040516101429190611d4f565b60405180910390f35b610153610475565b6040516101609190611e03565b60405180910390f35b610183600480360381019061017e9190611e5b565b610507565b6040516101909190611ec9565b60405180910390f35b6101b360048036038101906101ae9190611f10565b61058c565b005b6101cf60048036038101906101ca9190611f50565b6106a4565b005b6101eb60048036038101906101e69190611f50565b610704565b005b61020760048036038101906102029190611e5b565b610724565b6040516102149190611ec9565b60405180910390f35b61023760048036038101906102329190611fa3565b6107d6565b6040516102449190611fdf565b60405180910390f35b61025561088e565b005b610271600480360381019061026c919061212f565b610916565b005b61027b6109a0565b6040516102889190611ec9565b60405180910390f35b6102996109ca565b6040516102a69190611e03565b60405180910390f35b6102c960048036038101906102c491906121b7565b610a5c565b005b6102e560048036038101906102e09190612298565b610bdd565b005b61030160048036038101906102fc9190611e5b565b610c3f565b60405161030e9190611e03565b60405180910390f35b610331600480360381019061032c919061231b565b610d91565b60405161033e9190611d4f565b60405180910390f35b610361600480360381019061035c919061235b565b610e25565b60405161036e9190611fdf565b60405180910390f35b610391600480360381019061038c9190611fa3565b610ed9565b005b60007f80ac58cd000000000000000000000000000000000000000000000000000000007bffffffffffffffffffffffffffffffffffffffffffffffffffffffff1916827bffffffffffffffffffffffffffffffffffffffffffffffffffffffff1916148061045e57507f5b5e139f000000000000000000000000000000000000000000000000000000007bffffffffffffffffffffffffffffffffffffffffffffffffffffffff1916827bffffffffffffffffffffffffffffffffffffffffffffffffffffffff1916145b8061046e575061046d82610fd1565b5b9050919050565b606060008054610484906123e6565b80601f01602080910402602001604051908101604052809291908181526020018280546104b0906123e6565b80156104fd5780601f106104d2576101008083540402835291602001916104fd565b820191906000526020600020905b8154815290600101906020018083116104e057829003601f168201915b5050505050905090565b60006105128261103b565b610551576040517f08c379a00000000000000000000000000000000000000000000000000000000081526004016105489061248a565b60405180910390fd5b6004600083815260200190815260200160002060009054906101000a900473ffffffffffffffffffffffffffffffffffffffff169050919050565b600061059782610724565b90508073ffffffffffffffffffffffffffffffffffffffff168373ffffffffffffffffffffffffffffffffffffffff161415610608576040517f08c379a00000000000000000000000000000000000000000000000000000000081526004016105ff9061251c565b60405180910390fd5b8073ffffffffffffffffffffffffffffffffffffffff166106276110a7565b73ffffffffffffffffffffffffffffffffffffffff1614806106565750610655816106506110a7565b610d91565b5b610695576040517f08c379a000000000000000000000000000000000000000000000000000000000815260040161068c906125ae565b60405180910390fd5b61069f83836110af565b505050565b6106b56106af6110a7565b82611168565b6106f4576040517f08c379a00000000000000000000000000000000000000000000000000000000081526004016106eb90612640565b60405180910390fd5b6106ff838383611246565b505050565b61071f83838360405180602001604052806000815250610bdd565b505050565b6000806002600084815260200190815260200160002060009054906101000a900473ffffffffffffffffffffffffffffffffffffffff169050600073ffffffffffffffffffffffffffffffffffffffff168173ffffffffffffffffffffffffffffffffffffffff1614156107cd576040517f08c379a00000000000000000000000000000000000000000000000000000000081526004016107c4906126d2565b60405180910390fd5b80915050919050565b60008073ffffffffffffffffffffffffffffffffffffffff168273ffffffffffffffffffffffffffffffffffffffff161415610847576040517f08c379a000000000000000000000000000000000000000000000000000000000815260040161083e90612764565b60405180910390fd5b600360008373ffffffffffffffffffffffffffffffffffffffff1673ffffffffffffffffffffffffffffffffffffffff168152602001908152602001600020549050919050565b6108966110a7565b73ffffffffffffffffffffffffffffffffffffffff166108b46109a0565b73ffffffffffffffffffffffffffffffffffffffff161461090a576040517f08c379a0000000000000000000000000000000000000000000000000000000008152600401610901906127d0565b60405180910390fd5b61091460006114a2565b565b61091e6110a7565b73ffffffffffffffffffffffffffffffffffffffff1661093c6109a0565b73ffffffffffffffffffffffffffffffffffffffff1614610992576040517f08c379a0000000000000000000000000000000000000000000000000000000008152600401610989906127d0565b60405180910390fd5b61099c8282611568565b5050565b6000600760009054906101000a900473ffffffffffffffffffffffffffffffffffffffff16905090565b6060600180546109d9906123e6565b80601f0160208091040260200160405190810160405280929190818152602001828054610a05906123e6565b8015610a525780601f10610a2757610100808354040283529160200191610a52565b820191906000526020600020905b815481529060010190602001808311610a3557829003601f168201915b5050505050905090565b610a646110a7565b73ffffffffffffffffffffffffffffffffffffffff168273ffffffffffffffffffffffffffffffffffffffff161415610ad2576040517f08c379a0000000000000000000000000000000000000000000000000000000008152600401610ac99061283c565b60405180910390fd5b8060056000610adf6110a7565b73ffffffffffffffffffffffffffffffffffffffff1673ffffffffffffffffffffffffffffffffffffffff16815260200190815260200160002060008473ffffffffffffffffffffffffffffffffffffffff1673ffffffffffffffffffffffffffffffffffffffff16815260200190815260200160002060006101000a81548160ff0219169083151502179055508173ffffffffffffffffffffffffffffffffffffffff16610b8c6110a7565b73ffffffffffffffffffffffffffffffffffffffff167f17307eab39ab6107e8899845ad3d59bd9653f200f220920489ca2b5937696c3183604051610bd19190611d4f565b60405180910390a35050565b610bee610be86110a7565b83611168565b610c2d576040517f08c379a0000000000000000000000000000000000000000000000000000000008152600401610c2490612640565b60405180910390fd5b610c39848484846115dc565b50505050565b6060610c4a8261103b565b610c89576040517f08c379a0000000000000000000000000000000000000000000000000000000008152600401610c80906128ce565b60405180910390fd5b6000600660008481526020019081526020016000208054610ca9906123e6565b80601f0160208091040260200160405190810160405280929190818152602001828054610cd5906123e6565b8015610d225780601f10610cf757610100808354040283529160200191610d22565b820191906000526020600020905b815481529060010190602001808311610d0557829003601f168201915b505050505090506000610d33611638565b9050600081511415610d49578192505050610d8c565b600082511115610d7e578082604051602001610d6692919061292a565b60405160208183030381529060405292505050610d8c565b610d878461164f565b925050505b919050565b6000600560008473ffffffffffffffffffffffffffffffffffffffff1673ffffffffffffffffffffffffffffffffffffffff16815260200190815260200160002060008373ffffffffffffffffffffffffffffffffffffffff1673ffffffffffffffffffffffffffffffffffffffff16815260200190815260200160002060009054906101000a900460ff16905092915050565b6000610e2f6110a7565b73ffffffffffffffffffffffffffffffffffffffff16610e4d6109a0565b73ffffffffffffffffffffffffffffffffffffffff1614610ea3576040517f08c379a0000000000000000000000000000000000000000000000000000000008152600401610e9a906127d0565b60405180910390fd5b610ead60086116f6565b6000610eb9600861170c565b9050610ec5848261171a565b610ecf8184611568565b8091505092915050565b610ee16110a7565b73ffffffffffffffffffffffffffffffffffffffff16610eff6109a0565b73ffffffffffffffffffffffffffffffffffffffff1614610f55576040517f08c379a0000000000000000000000000000000000000000000000000000000008152600401610f4c906127d0565b60405180910390fd5b600073ffffffffffffffffffffffffffffffffffffffff168173ffffffffffffffffffffffffffffffffffffffff161415610fc5576040517f08c379a0000000000000000000000000000000000000000000000000000000008152600401610fbc906129c0565b60405180910390fd5b610fce816114a2565b50565b60007f01ffc9a7000000000000000000000000000000000000000000000000000000007bffffffffffffffffffffffffffffffffffffffffffffffffffffffff1916827bffffffffffffffffffffffffffffffffffffffffffffffffffffffff1916149050919050565b60008073ffffffffffffffffffffffffffffffffffffffff166002600084815260200190815260200160002060009054906101000a900473ffffffffffffffffffffffffffffffffffffffff1673ffffffffffffffffffffffffffffffffffffffff1614159050919050565b600033905090565b816004600083815260200190815260200160002060006101000a81548173ffffffffffffffffffffffffffffffffffffffff021916908373ffffffffffffffffffffffffffffffffffffffff160217905550808273ffffffffffffffffffffffffffffffffffffffff1661112283610724565b73ffffffffffffffffffffffffffffffffffffffff167f8c5be1e5ebec7d5bd14f71427d1e84f3dd0314c0f7b2291e5b200ac8c7c3b92560405160405180910390a45050565b60006111738261103b565b6111b2576040517f08c379a00000000000000000000000000000000000000000000000000000000081526004016111a990612a52565b60405180910390fd5b60006111bd83610724565b90508073ffffffffffffffffffffffffffffffffffffffff168473ffffffffffffffffffffffffffffffffffffffff16148061122c57508373ffffffffffffffffffffffffffffffffffffffff1661121484610507565b73ffffffffffffffffffffffffffffffffffffffff16145b8061123d575061123c8185610d91565b5b91505092915050565b8273ffffffffffffffffffffffffffffffffffffffff1661126682610724565b73ffffffffffffffffffffffffffffffffffffffff16146112bc576040517f08c379a00000000000000000000000000000000000000000000000000000000081526004016112b390612ae4565b60405180910390fd5b600073ffffffffffffffffffffffffffffffffffffffff168273ffffffffffffffffffffffffffffffffffffffff16141561132c576040517f08c379a000000000000000000000000000000000000000000000000000000000815260040161132390612b76565b60405180910390fd5b6113378383836118e8565b6113426000826110af565b6001600360008573ffffffffffffffffffffffffffffffffffffffff1673ffffffffffffffffffffffffffffffffffffffff16815260200190815260200160002060008282546113929190612bc5565b925050819055506001600360008473ffffffffffffffffffffffffffffffffffffffff1673ffffffffffffffffffffffffffffffffffffffff16815260200190815260200160002060008282546113e99190612bf9565b92505081905550816002600083815260200190815260200160002060006101000a81548173ffffffffffffffffffffffffffffffffffffffff021916908373ffffffffffffffffffffffffffffffffffffffff160217905550808273ffffffffffffffffffffffffffffffffffffffff168473ffffffffffffffffffffffffffffffffffffffff167fddf252ad1be2c89b69c2b068fc378daa952ba7f163c4a11628f55a4df523b3ef60405160405180910390a4505050565b6000600760009054906101000a900473ffffffffffffffffffffffffffffffffffffffff16905081600760006101000a81548173ffffffffffffffffffffffffffffffffffffffff021916908373ffffffffffffffffffffffffffffffffffffffff1602179055508173ffffffffffffffffffffffffffffffffffffffff168173ffffffffffffffffffffffffffffffffffffffff167f8be0079c531659141344cd1fd0a4f28419497f9722a3daafe3b4186f6b6457e060405160405180910390a35050565b6115718261103b565b6115b0576040517f08c379a00000000000000000000000000000000000000000000000000000000081526004016115a790612cc1565b60405180910390fd5b806006600084815260200190815260200160002090805190602001906115d7929190611bf8565b505050565b6115e7848484611246565b6115f3848484846118ed565b611632576040517f08c379a000000000000000000000000000000000000000000000000000000000815260040161162990612d53565b60405180910390fd5b50505050565b606060405180602001604052806000815250905090565b606061165a8261103b565b611699576040517f08c379a000000000000000000000000000000000000000000000000000000000815260040161169090612de5565b60405180910390fd5b60006116a3611638565b905060008151116116c357604051806020016040528060008152506116ee565b806116cd84611a84565b6040516020016116de92919061292a565b6040516020818303038152906040525b915050919050565b6001816000016000828254019250508190555050565b600081600001549050919050565b600073ffffffffffffffffffffffffffffffffffffffff168273ffffffffffffffffffffffffffffffffffffffff16141561178a576040517f08c379a000000000000000000000000000000000000000000000000000000000815260040161178190612e51565b60405180910390fd5b6117938161103b565b156117d3576040517f08c379a00000000000000000000000000000000000000000000000000000000081526004016117ca90612ebd565b60405180910390fd5b6117df600083836118e8565b6001600360008473ffffffffffffffffffffffffffffffffffffffff1673ffffffffffffffffffffffffffffffffffffffff168152602001908152602001600020600082825461182f9190612bf9565b92505081905550816002600083815260200190815260200160002060006101000a81548173ffffffffffffffffffffffffffffffffffffffff021916908373ffffffffffffffffffffffffffffffffffffffff160217905550808273ffffffffffffffffffffffffffffffffffffffff16600073ffffffffffffffffffffffffffffffffffffffff167fddf252ad1be2c89b69c2b068fc378daa952ba7f163c4a11628f55a4df523b3ef60405160405180910390a45050565b505050565b600061190e8473ffffffffffffffffffffffffffffffffffffffff16611be5565b15611a77578373ffffffffffffffffffffffffffffffffffffffff1663150b7a026119376110a7565b8786866040518563ffffffff1660e01b81526004016119599493929190612f32565b602060405180830381600087803b15801561197357600080fd5b505af19250505080156119a457506040513d601f19601f820116820180604052508101906119a19190612f93565b60015b611a27573d80600081146119d4576040519150601f19603f3d011682016040523d82523d6000602084013e6119d9565b606091505b50600081511415611a1f576040517f08c379a0000000000000000000000000000000000000000000000000000000008152600401611a1690612d53565b60405180910390fd5b805181602001fd5b63150b7a0260e01b7bffffffffffffffffffffffffffffffffffffffffffffffffffffffff1916817bffffffffffffffffffffffffffffffffffffffffffffffffffffffff191614915050611a7c565b600190505b949350505050565b60606000821415611acc576040518060400160405280600181526020017f30000000000000000000000000000000000000000000000000000000000000008152509050611be0565b600082905060005b60008214611afe578080611ae790612fc0565b915050600a82611af79190613038565b9150611ad4565b60008167ffffffffffffffff811115611b1a57611b19612004565b5b6040519080825280601f01601f191660200182016040528015611b4c5781602001600182028036833780820191505090505b5090505b60008514611bd957600182611b659190612bc5565b9150600a85611b749190613069565b6030611b809190612bf9565b60f81b818381518110611b9657611b9561309a565b5b60200101907effffffffffffffffffffffffffffffffffffffffffffffffffffffffffffff1916908160001a905350600a85611bd29190613038565b9450611b50565b8093505050505b919050565b600080823b905060008111915050919050565b828054611c04906123e6565b90600052602060002090601f016020900481019282611c265760008555611c6d565b82601f10611c3f57805160ff1916838001178555611c6d565b82800160010185558215611c6d579182015b82811115611c6c578251825591602001919060010190611c51565b5b509050611c7a9190611c7e565b5090565b5b80821115611c97576000816000905550600101611c7f565b5090565b6000604051905090565b600080fd5b600080fd5b60007fffffffff0000000000000000000000000000000000000000000000000000000082169050919050565b611ce481611caf565b8114611cef57600080fd5b50565b600081359050611d0181611cdb565b92915050565b600060208284031215611d1d57611d1c611ca5565b5b6000611d2b84828501611cf2565b91505092915050565b60008115159050919050565b611d4981611d34565b82525050565b6000602082019050611d646000830184611d40565b92915050565b600081519050919050565b600082825260208201905092915050565b60005b83811015611da4578082015181840152602081019050611d89565b83811115611db3576000848401525b50505050565b6000601f19601f8301169050919050565b6000611dd582611d6a565b611ddf8185611d75565b9350611def818560208601611d86565b611df881611db9565b840191505092915050565b60006020820190508181036000830152611e1d8184611dca565b905092915050565b6000819050919050565b611e3881611e25565b8114611e4357600080fd5b50565b600081359050611e5581611e2f565b92915050565b600060208284031215611e7157611e70611ca5565b5b6000611e7f84828501611e46565b91505092915050565b600073ffffffffffffffffffffffffffffffffffffffff82169050919050565b6000611eb382611e88565b9050919050565b611ec381611ea8565b82525050565b6000602082019050611ede6000830184611eba565b92915050565b611eed81611ea8565b8114611ef857600080fd5b50565b600081359050611f0a81611ee4565b92915050565b60008060408385031215611f2757611f26611ca5565b5b6000611f3585828601611efb565b9250506020611f4685828601611e46565b9150509250929050565b600080600060608486031215611f6957611f68611ca5565b5b6000611f7786828701611efb565b9350506020611f8886828701611efb565b9250506040611f9986828701611e46565b9150509250925092565b600060208284031215611fb957611fb8611ca5565b5b6000611fc784828501611efb565b91505092915050565b611fd981611e25565b82525050565b6000602082019050611ff46000830184611fd0565b92915050565b600080fd5b600080fd5b7f4e487b7100000000000000000000000000000000000000000000000000000000600052604160045260246000fd5b61203c82611db9565b810181811067ffffffffffffffff8211171561205b5761205a612004565b5b80604052505050565b600061206e611c9b565b905061207a8282612033565b919050565b600067ffffffffffffffff82111561209a57612099612004565b5b6120a382611db9565b9050602081019050919050565b82818337600083830152505050565b60006120d26120cd8461207f565b612064565b9050828152602081018484840111156120ee576120ed611fff565b5b6120f98482856120b0565b509392505050565b600082601f83011261211657612115611ffa565b5b81356121268482602086016120bf565b91505092915050565b6000806040838503121561214657612145611ca5565b5b600061215485828601611e46565b925050602083013567ffffffffffffffff81111561217557612174611caa565b5b61218185828601612101565b9150509250929050565b61219481611d34565b811461219f57600080fd5b50565b6000813590506121b18161218b565b92915050565b600080604083850312156121ce576121cd611ca5565b5b60006121dc85828601611efb565b92505060206121ed858286016121a2565b9150509250929050565b600067ffffffffffffffff82111561221257612211612004565b5b61221b82611db9565b9050602081019050919050565b600061223b612236846121f7565b612064565b90508281526020810184848401111561225757612256611fff565b5b6122628482856120b0565b509392505050565b600082601f83011261227f5761227e611ffa565b5b813561228f848260208601612228565b91505092915050565b600080600080608085870312156122b2576122b1611ca5565b5b60006122c087828801611efb565b94505060206122d187828801611efb565b93505060406122e287828801611e46565b925050606085013567ffffffffffffffff81111561230357612302611caa565b5b61230f8782880161226a565b91505092959194509250565b6000806040838503121561233257612331611ca5565b5b600061234085828601611efb565b925050602061235185828601611efb565b9150509250929050565b6000806040838503121561237257612371611ca5565b5b600061238085828601611efb565b925050602083013567ffffffffffffffff8111156123a1576123a0611caa565b5b6123ad85828601612101565b9150509250929050565b7f4e487b7100000000000000000000000000000000000000000000000000000000600052602260045260246000fd5b600060028204905060018216806123fe57607f821691505b60208210811415612412576124116123b7565b5b50919050565b7f4552433732313a20617070726f76656420717565727920666f72206e6f6e657860008201527f697374656e7420746f6b656e0000000000000000000000000000000000000000602082015250565b6000612474602c83611d75565b915061247f82612418565b604082019050919050565b600060208201905081810360008301526124a381612467565b9050919050565b7f4552433732313a20617070726f76616c20746f2063757272656e74206f776e6560008201527f7200000000000000000000000000000000000000000000000000000000000000602082015250565b6000612506602183611d75565b9150612511826124aa565b604082019050919050565b60006020820190508181036000830152612535816124f9565b9050919050565b7f4552433732313a20617070726f76652063616c6c6572206973206e6f74206f7760008201527f6e6572206e6f7220617070726f76656420666f7220616c6c0000000000000000602082015250565b6000612598603883611d75565b91506125a38261253c565b604082019050919050565b600060208201905081810360008301526125c78161258b565b9050919050565b7f4552433732313a207472616e736665722063616c6c6572206973206e6f74206f60008201527f776e6572206e6f7220617070726f766564000000000000000000000000000000602082015250565b600061262a603183611d75565b9150612635826125ce565b604082019050919050565b600060208201905081810360008301526126598161261d565b9050919050565b7f4552433732313a206f776e657220717565727920666f72206e6f6e657869737460008201527f656e7420746f6b656e0000000000000000000000000000000000000000000000602082015250565b60006126bc602983611d75565b91506126c782612660565b604082019050919050565b600060208201905081810360008301526126eb816126af565b9050919050565b7f4552433732313a2062616c616e636520717565727920666f7220746865207a6560008201527f726f206164647265737300000000000000000000000000000000000000000000602082015250565b600061274e602a83611d75565b9150612759826126f2565b604082019050919050565b6000602082019050818103600083015261277d81612741565b9050919050565b7f4f776e61626c653a2063616c6c6572206973206e6f7420746865206f776e6572600082015250565b60006127ba602083611d75565b91506127c582612784565b602082019050919050565b600060208201905081810360008301526127e9816127ad565b9050919050565b7f4552433732313a20617070726f766520746f2063616c6c657200000000000000600082015250565b6000612826601983611d75565b9150612831826127f0565b602082019050919050565b6000602082019050818103600083015261285581612819565b9050919050565b7f45524337323155524953746f726167653a2055524920717565727920666f722060008201527f6e6f6e6578697374656e7420746f6b656e000000000000000000000000000000602082015250565b60006128b8603183611d75565b91506128c38261285c565b604082019050919050565b600060208201905081810360008301526128e7816128ab565b9050919050565b600081905092915050565b600061290482611d6a565b61290e81856128ee565b935061291e818560208601611d86565b80840191505092915050565b600061293682856128f9565b915061294282846128f9565b91508190509392505050565b7f4f776e61626c653a206e6577206f776e657220697320746865207a65726f206160008201527f6464726573730000000000000000000000000000000000000000000000000000602082015250565b60006129aa602683611d75565b91506129b58261294e565b604082019050919050565b600060208201905081810360008301526129d98161299d565b9050919050565b7f4552433732313a206f70657261746f7220717565727920666f72206e6f6e657860008201527f697374656e7420746f6b656e0000000000000000000000000000000000000000602082015250565b6000612a3c602c83611d75565b9150612a47826129e0565b604082019050919050565b60006020820190508181036000830152612a6b81612a2f565b9050919050565b7f4552433732313a207472616e73666572206f6620746f6b656e2074686174206960008201527f73206e6f74206f776e0000000000000000000000000000000000000000000000602082015250565b6000612ace602983611d75565b9150612ad982612a72565b604082019050919050565b60006020820190508181036000830152612afd81612ac1565b9050919050565b7f4552433732313a207472616e7366657220746f20746865207a65726f2061646460008201527f7265737300000000000000000000000000000000000000000000000000000000602082015250565b6000612b60602483611d75565b9150612b6b82612b04565b604082019050919050565b60006020820190508181036000830152612b8f81612b53565b9050919050565b7f4e487b7100000000000000000000000000000000000000000000000000000000600052601160045260246000fd5b6000612bd082611e25565b9150612bdb83611e25565b925082821015612bee57612bed612b96565b5b828203905092915050565b6000612c0482611e25565b9150612c0f83611e25565b9250827fffffffffffffffffffffffffffffffffffffffffffffffffffffffffffffffff03821115612c4457612c43612b96565b5b828201905092915050565b7f45524337323155524953746f726167653a2055524920736574206f66206e6f6e60008201527f6578697374656e7420746f6b656e000000000000000000000000000000000000602082015250565b6000612cab602e83611d75565b9150612cb682612c4f565b604082019050919050565b60006020820190508181036000830152612cda81612c9e565b9050919050565b7f4552433732313a207472616e7366657220746f206e6f6e20455243373231526560008201527f63656976657220696d706c656d656e7465720000000000000000000000000000602082015250565b6000612d3d603283611d75565b9150612d4882612ce1565b604082019050919050565b60006020820190508181036000830152612d6c81612d30565b9050919050565b7f4552433732314d657461646174613a2055524920717565727920666f72206e6f60008201527f6e6578697374656e7420746f6b656e0000000000000000000000000000000000602082015250565b6000612dcf602f83611d75565b9150612dda82612d73565b604082019050919050565b60006020820190508181036000830152612dfe81612dc2565b9050919050565b7f4552433732313a206d696e7420746f20746865207a65726f2061646472657373600082015250565b6000612e3b602083611d75565b9150612e4682612e05565b602082019050919050565b60006020820190508181036000830152612e6a81612e2e565b9050919050565b7f4552433732313a20746f6b656e20616c7265616479206d696e74656400000000600082015250565b6000612ea7601c83611d75565b9150612eb282612e71565b602082019050919050565b60006020820190508181036000830152612ed681612e9a565b9050919050565b600081519050919050565b600082825260208201905092915050565b6000612f0482612edd565b612f0e8185612ee8565b9350612f1e818560208601611d86565b612f2781611db9565b840191505092915050565b6000608082019050612f476000830187611eba565b612f546020830186611eba565b612f616040830185611fd0565b8181036060830152612f738184612ef9565b905095945050505050565b600081519050612f8d81611cdb565b92915050565b600060208284031215612fa957612fa8611ca5565b5b6000612fb784828501612f7e565b91505092915050565b6000612fcb82611e25565b91507fffffffffffffffffffffffffffffffffffffffffffffffffffffffffffffffff821415612ffe57612ffd612b96565b5b600182019050919050565b7f4e487b7100000000000000000000000000000000000000000000000000000000600052601260045260246000fd5b600061304382611e25565b915061304e83611e25565b92508261305e5761305d613009565b5b828204905092915050565b600061307482611e25565b915061307f83611e25565b92508261308f5761308e613009565b5b828206905092915050565b7f4e487b7100000000000000000000000000000000000000000000000000000000600052603260045260246000fdfea26469706673582212208d2994be786530443f6eda9b7db3d2f578c10f7440a02ef017c23d568920bf7564736f6c63430008090033",
  "immutableReferences": {},
  "source": "// SPDX-License-Identifier: MIT\r\npragma solidity ^0.8.9;\r\n\r\nimport \"@openzeppelin/contracts/token/ERC721/extensions/ERC721URIStorage.sol\";\r\nimport \"@openzeppelin/contracts/utils/Counters.sol\";\r\nimport \"@openzeppelin/contracts/access/Ownable.sol\";\r\n\r\ncontract NFTBI is ERC721URIStorage, Ownable {\r\n  using Counters for Counters.Counter;\r\n  Counters.Counter private tokenIds;\r\n\r\n  constructor() ERC721(\"Blockchain Insper 2022.1\", \"NFTBI\") {}\r\n\r\n  function mintNFT(address _owner, string memory _tokenURI) public onlyOwner returns (uint256) {\r\n    tokenIds.increment();\r\n\r\n    uint256 newItemId = tokenIds.current();\r\n    _mint(_owner, newItemId);\r\n    _setTokenURI(newItemId, _tokenURI);\r\n\r\n    return newItemId;\r\n  }\r\n\r\n  function changeTokenURI(uint256 _tokenId, string memory _tokenURI) public onlyOwner {\r\n    _setTokenURI(_tokenId, _tokenURI);\r\n  }\r\n}\r\n",
  "sourcePath": "C:\\Users\\Fernando\\Desktop\\bi-nfts\\contracts\\NFTBI.sol",
  "compiler": {
    "name": "solc",
    "version": "0.8.9+commit.e5eed63a.Emscripten.clang"
  },
  "schemaVersion": "3.4.4",
  "updatedAt": "2022-02-03T13:06:52.833Z",
  "networkType": "ethereum",
  "devdoc": {
    "kind": "dev",
    "methods": {
      "approve(address,uint256)": {
        "details": "See {IERC721-approve}."
      },
      "balanceOf(address)": {
        "details": "See {IERC721-balanceOf}."
      },
      "getApproved(uint256)": {
        "details": "See {IERC721-getApproved}."
      },
      "isApprovedForAll(address,address)": {
        "details": "See {IERC721-isApprovedForAll}."
      },
      "name()": {
        "details": "See {IERC721Metadata-name}."
      },
      "owner()": {
        "details": "Returns the address of the current owner."
      },
      "ownerOf(uint256)": {
        "details": "See {IERC721-ownerOf}."
      },
      "renounceOwnership()": {
        "details": "Leaves the contract without owner. It will not be possible to call `onlyOwner` functions anymore. Can only be called by the current owner. NOTE: Renouncing ownership will leave the contract without an owner, thereby removing any functionality that is only available to the owner."
      },
      "safeTransferFrom(address,address,uint256)": {
        "details": "See {IERC721-safeTransferFrom}."
      },
      "safeTransferFrom(address,address,uint256,bytes)": {
        "details": "See {IERC721-safeTransferFrom}."
      },
      "setApprovalForAll(address,bool)": {
        "details": "See {IERC721-setApprovalForAll}."
      },
      "supportsInterface(bytes4)": {
        "details": "See {IERC165-supportsInterface}."
      },
      "symbol()": {
        "details": "See {IERC721Metadata-symbol}."
      },
      "tokenURI(uint256)": {
        "details": "See {IERC721Metadata-tokenURI}."
      },
      "transferFrom(address,address,uint256)": {
        "details": "See {IERC721-transferFrom}."
      },
      "transferOwnership(address)": {
        "details": "Transfers ownership of the contract to a new account (`newOwner`). Can only be called by the current owner."
      }
    },
    "version": 1
  },
  "userdoc": {
    "kind": "user",
    "methods": {},
    "version": 1
  }
}